:020000040800F2
:10000000000E0020A9020008E14C0008554300083A
:1000100000000000000000000000000000000000E0
:10002000000000000000000000000000E74C000895
:100030000000000000000000E54C0008394D0008F9
:10004000BB020008BB020008BB020008BB0200089C
:10005000BB020008BB020008BB020008BB0200088C
:10006000BB020008C1240008BB020008BB02000854
:10007000BB020008BB020008BB020008BB0200086C
:10008000BB020008BB020008BB020008BB0200085C
:10009000BB020008BB020008BB020008BB0200084C
:1000A000BB020008BB020008BB020008BB0200083C
:1000B000BB020008BB020008BB020008BB0200082C
:1000C00000F002F800F0C5F80CA030C80838241879
:1000D0002D18671EA246AB4654465D46AC4201D180
:1000E00000F0B7F87E460F3EB6460FCC01263342ED
:1000F00000D0FB1A3343A246AB461847CC5B000046
:10010000EC5B0000103A02D378C878C1FAD85207E5
:1001100001D330C830C101D504680C6070470000BD
:100120000023002400250026103A01D378C1FBD813
:10013000520700D330C100D50B60704710B56E294F
:1001400002D100F075FB10BD702902D100F0A5FCB2
:1001500010BD662902D105F0E7FC10BD652902D16A
:1001600005F0E2FC10BD672902D105F0DDFC10BDF1
:10017000612902D105F0E0FC10BD03681B0A01D320
:1001800080231943692902D100F01CFB10BD6429AA
:1001900002D100F017FB10BD752902D100F012FB4F
:1001A00010BD6F2902D100F023FC10BD782902D1C7
:1001B00000F060FC10BDE92902D100F0BFFB10BDCA
:1001C000E42902D100F0BAFB10BDF52902D100F0FC
:1001D000B5FB10BDEF2902D100F016FC10BDF829C7
:1001E00002D100F055FC10BD0368DB0901D3802368
:1001F0001943632902D101F050F910BD732902D1CE
:1002000001F053F910BDE32902D101F05DF910BDF1
:10021000F32902D101F060F910BD002010BD1FB517
:100220000098019901F0E7FE01F058FA040000205F
:10023000002105F063FC401C60600020002105F0F7
:1002400047FCE06001F050F91FBD10B501F0B8F9AE
:1002500010BD01F01CFA1146FFF7E1FF05F076FB37
:1002600001F09AFE03B4FFF7F0FF03BC05F0C4F9F8
:1002700070B505460C46164602E00FCC0FC5103E81
:10028000102EFAD2082E02D303CC03C5083E042E4A
:1002900007D301CC01C5361F03E021782970641C07
:1002A0006D1C761EF9D270BD07488047074800478D
:1002B000FEE7FEE7FEE7FEE7FEE7FEE70448054946
:1002C000054A064B70470000A14D0008C100000818
:1002D00000080020000E0020000A0020000A002074
:1002E00070474343514330B55C18010C130C0D4665
:1002F00092B25D4380B251432C19054655430A0C16
:1003000009044D1962415843010C00044019514140
:1003100030BDFEB5044610460D46184373D0A646C0
:100320008C460020A41A01469D4167D366460027EB
:1003300001243D46B61A9D4102D313463A46212474
:10034000654676462F04360C3E432D0CB61A9D4169
:1003500004D3150C1B042B43120410346546764657
:100360002F06360A3E432D0AB61A9D4104D3150EB8
:100370001B022B4312020834654676462F073609C6
:100380003E432D09B61A9D4104D3150F1B012B4383
:100390001201241D65467646AF07B6083E43AD08F8
:1003A000B61A9D4104D3950F9B002B439200A41CC9
:1003B00065467646EF0776083E436D08B61A9D41BE
:1003C0001AD392185B41641C16E000187646654605
:1003D0004941B71A9D410191009009D36046B11A75
:1003E00098418E468446009801990025401C694139
:1003F000DD0752082A435B08641EE6D57246634651
:1004000003B0F0BDFFE72046284307D00020C043DB
:100410000146C046C04622462B46F1E70020014671
:10042000F7E700000FB4054910B503AA029800F0E1
:1004300013FA10BC08BC04B0184700009400002058
:10044000F8B5042A2CD3830712D00B78491C03700B
:10045000401C521E83070BD00B78491C0370401CB4
:10046000521E830704D00B78491C0370401C521E97
:100470008B079B0F05D0C91ADF002023DE1B08C99C
:100480000AE0FFF7F5FEF8BD1D4608C9FD401C4611
:10049000B4402C4310C0121F042AF5D2F308C91A25
:1004A000521EF0D40B78491C0370401C521EEAD433
:1004B0000B78491C0370401C012AE4D409780170B0
:1004C000F8BD01E004C0091F0429FBD28B0701D548
:1004D0000280801CC90700D00270704700290BD031
:1004E000C30702D00270401C491E022904D38307AF
:1004F00002D50280801C891EE3E70022EEE700227D
:10050000DFE70000024670B50A4392072AD11E4D6C
:10051000EE0104C808C9541B9443344017D0D0B22C
:10052000D9B2401A2106014310D190B299B2401AB3
:10053000210401430AD110021902000A090A401AD3
:100540002102014302D1100E190E401A70BD9A42C9
:10055000DFD010BA19BA884201D9012070BD00203D
:10056000C04370BD02780B78401C491C002A09D09A
:100570009A4207D102780B78401C491C002A01D00E
:100580009A42EFD0D01A70BD010101010022030987
:100590008B422CD3030A8B4211D300239C464EE09E
:1005A00003460B433CD4002243088B4231D303095A
:1005B0008B421CD3030A8B4201D394463FE0C3090C
:1005C0008B4201D3CB01C01A524183098B4201D324
:1005D0008B01C01A524143098B4201D34B01C01A0F
:1005E000524103098B4201D30B01C01A5241C30887
:1005F0008B4201D3CB00C01A524183088B4201D3F6
:100600008B00C01A524143088B4201D34B00C01AE1
:100610005241411A00D201465241104670475DE0F6
:10062000CA0F00D04942031000D3404253409C46B9
:10063000002203098B422DD3030A8B4212D3890176
:10064000FC2212BA030A8B420CD3890192118B420D
:1006500008D3890192118B4204D389013AD09211B7
:1006600000E08909C3098B4201D3CB01C01A524172
:1006700083098B4201D38B01C01A524143098B423B
:1006800001D34B01C01A524103098B4201D30B0124
:10069000C01A5241C3088B4201D3CB00C01A524149
:1006A00083088B4201D38B00C01A5241D9D2430830
:1006B0008B4201D34B00C01A5241411A00D201466D
:1006C0005241104663465B1001D34042002B00D5D7
:1006D0004942704763465B1000D3404201B505496B
:1006E000002802DC491C084000E00846C046C0461D
:1006F00002BD00BFFFFFFF7F704770477047704724
:1007000070B5044685690068C10601D5302600E051
:100710002026C00707D070BD62683046A1689047A8
:10072000206A401C20626D1EF6D570BD70B504466F
:1007300085690078C00707D170BD6268A168202074
:100740009047206A401C20626D1EF6D570BD096876
:100750004A0501D540B27047C905FCD500B27047C3
:1007600009684A0501D5C0B27047C905FCD580B2F9
:10077000704770B50C460546012A05D028788006DA
:1007800000D5EA69002302E0012305E05B1C9342E7
:1007900002D2E05C0028F9D1A869E618C01AA86165
:1007A000286AC01828622846FFF7AAFF04E06A6892
:1007B0002078A968641C9047B442F8D32846FFF714
:1007C000B5FF70BDF7B5002575291068009914A60E
:1007D00011D0FFF7BCFF002802DA404211A608E062
:1007E000009909688A0701D50FA602E0490704D5D8
:1007F0000EA6012501E0FFF7B3FF009F0024243778
:1008000004E000F030FF30313955641C0028F8D185
:100810002B4632462146009800F04DFAFEBD0000FE
:10082000000000002D0000002B0000002000000050
:1008300011680268006A530501D5087009E0D30504
:1008400001D5088005E0130602D5C21705C100E0F6
:100850000860012070470000084B70B50D467B44CE
:1008600000F0FDFD0446284600F03AFE002802D0C4
:100870000020C04370BD204670BD00005F500000E6
:10088000F7B50446154686B02B487844002703C8C0
:100890003E460090019111E007986A467100415A66
:1008A00002A800F0BFFE411C07D02178890603D5BD
:1008B000E269391891420ED83F18761C20788006DC
:1008C00002D5E069B84206DDAE42E5DB079871006B
:1008D000405A0028E0D1A069C01BA0612046FFF764
:1008E0000FFF154878445A3803C800900020019142
:1008F00016E041006A460798415A02A800F092FEAD
:100900000590401C0AD0002505E0626802A8A16895
:10091000405D90476D1C05988542F6D30498401CB5
:10092000B0420490E5DB206AC01920622046FFF740
:10093000FDFE09B0F0BD0000BA520000F7B5D21DAF
:100940000025D20815A6D200F52905CA11D0002A23
:1009500005DA00214042914111A60A4608E00099BB
:1009600009688B0701D50FA602E0490701D50EA63D
:1009700001251146009F0024243704E000F05EF9B1
:1009800030323A55641C02460A43F7D12B463246B0
:100990002146009800F08FF9FEBD00000000000025
:1009A0002D0000002B0000002000000070B5044660
:1009B0000021243408E05507D2086D0F3035655406
:1009C0005D072A43DB08491C15461D43F3D1046823
:1009D000002310A2250708D520252C400C4304D065
:1009E000C46901230CA2641EC46100F064F970BDE7
:1009F00010B5044621461068FFF7B2FE00230246F8
:100A00002046FFF7D3FF10BDD21DD108C9000CC985
:100A1000CCE700000000000030000000F8B50F46F1
:100A20000188090502D5224C7C4402E0204C7C441C
:100A30000E3405460021243508E016071209360F4A
:100A4000A65D6E541E0732431B09491C16461E4301
:100A5000F3D1224604780023240705D5702F06D051
:100A6000002901D00223113200F025F9F8BD01233D
:100A70001032F9E770B504460D4621461068FFF7BD
:100A80006FFE0023024629462046FFF7C7FF70BDD0
:100A9000D21DD308DB000CCBC0E730B403682024A0
:100AA0001268234303600823C36130BC0023B5E709
:100AB00024510000F3B50446002081B02062204696
:100AC000E1688847002872D0252802D06268A168B2
:100AD000ABE0594F00267F442046E1688847202834
:100AE000054608DB312D06D2781920380078002819
:100AF00001D00643F0E7B00701D50420864300206B
:100B0000E0610746A0612A2D0AD0284604F0D8FFEC
:100B1000002827D0B8000019303D0090856119E009
:100B20000298BA00121902C8916102902046E16849
:100B30008847012F054617D1E06900281FDA2020D9
:100B400086431CE000980A218069484300994019B7
:100B5000303888612046E1688847054604F0B0FFD8
:100B60000028EFD1012F0AD02E2D08D12046E168B0
:100B700088470546202006437F1C022FC3DBA0695F
:100B8000002803DA4042A06101200643F00701D0AB
:100B9000102086436C2D0BD0682D09D04C2D3CD0F5
:100BA0006A2D38D0742D38D07A2D36D016E040E03A
:100BB000E1682F4620468847B842054609D16C2F88
:100BC00029D001208002E168064320468847054677
:100BD00004E06C2F1DD0FF2001300643002D28D0EB
:100BE00028464138192803D80120C0020643203581
:100BF000204626602946029A1646FFF79FFA0028EB
:100C000010D001280BD0F61DF008C000083002906B
:100C100055E74020E1E78020D5E70020D3E7361DE7
:100C200002964CE762682846A1689047206A401CFB
:100C300044E7206AFEBD00009E5000000B4670B5E0
:100C4000024689078008084319469D08141AA941DD
:100C500025090807054308092C194841250A0106FA
:100C60000D43010A2C194141200C0D0428430D0CA1
:100C700000194D41002140194D41C0086907084342
:100C8000E908840F8D002543840024184D41241960
:100C90006D41121BAB4107E00925ED432C115219A0
:100CA00063410024401C61411C460A250026551B57
:100CB000B441F1D270BDFFB504460D4681B0243079
:100CC00000902168880604D51022E06991432160D4
:100CD00000E00120A84201DD471B00E00027049846
:100CE000A1697A191018081AA0612078C00602D4E8
:100CF0002046FFF705FD002608E003986268A1681A
:100D0000805D9047206A401C761C206204988642D1
:100D1000F3DB2078C0060AD52046FFF7F1FC06E099
:100D20006268A16830209047206A401C20623846E3
:100D30007F1E0028F4DC07E000986268A168405D2F
:100D40009047206A401C206228466D1E0028F3DC74
:100D50002046FFF7EBFC2078000602D5022005B004
:100D6000F0BD0120FBE70000FFB50C461E468FB02A
:100D700003CA089009914F007D0D00D16D1E00211E
:100D800008460020C0460321099A89050840002A28
:100D900003DA8200801840080840800D01280A907C
:100DA00002DD0020C0430A90089807430DD0F048A8
:100DB000F049281848430714189800281DD0754298
:100DC000291E1DDD0A9842421BE01898012802D016
:100DD0000020302104E00020F24305E02154401CB3
:100DE000B042FBDB30460022189B002121540F99B2
:100DF0008B600A60486013B0F0BDBD1B6D1CDFE75F
:100E00000A9A002900DA69420BA800F0D5FC0BAB66
:100E100007CB03AB07C30899099800F039FD6B466F
:100E200007C30146D4480918002D00910BDDD249B3
:100E300003980A9A49424018002303A90390684680
:100E400000F096FF08E003990A9A0023081803A906
:100E50000390684600F036FF6B4607C30004000CA1
:100E600003D00020C043410800E01046189A002A31
:100E700003D00022009215461EE0751E05D4FFF730
:100E8000DDFE303262556D1EF9D50122084307960A
:100E900002D000227F1C04E02078302801D10022FB
:100EA0007F1E002A069787D01EE0112D07DAFFF774
:100EB000C5FE303262556D1C02460A43F5D1084327
:100EC00003D00098002819D00EE00021681E05E02C
:100ED000235C625C63542254401E491C8142F7DB50
:100EE000A81B401E07950690079A18990020A05449
:100EF0000F98079B069A81600CC07CE711260020A2
:100F0000189059E7D21DF0B50D460446D10893B0AC
:100F1000C90003C90C900D9104F0BCFD02460D9868
:100F2000C00F01D02D2007E02068810701D52B20BC
:100F300002E04007C00F4001032A0F9001D0072AAA
:100F400005DB03462946204600F0F2FB0EE120783F
:100F5000800601D5E76900E006272846652D04D004
:100F6000662814D0672D69D12DE00020112F009044
:100F700001DB112300E07B1C0CAA03A910A8FFF7DA
:100F8000F3FE1199002610987D1C0E9142E001207D
:100F90003B460CAAC0070B900120009003A910A8A3
:100FA000FFF7E2FE119D12981099002600280E9579
:100FB00001D1781C0D18781B02D446427D1C761E88
:100FC000E81B00903AE0012F00DA01270020112FE2
:100FD000009001DD112300E03B460CAA03A910A8F4
:100FE000FFF7C2FE11993D46109800260E91217818
:100FF00009070BD40E99A94200DA0D4603A9012D69
:1010000004DD4A19203AD27F302A06D0B84201DAEC
:10101000011D04DA012100910FE06D1EEFE70028A9
:1010200002DC86192D1A03E0411CA94200DD0D46A1
:10103000801B401C00900120C0070B902078000707
:1010400005D40098A84202DB0020C0430090694606
:101050000020C8720B98012102AF0337C9078842EC
:1010600025D0022010902B2011900B9800280BDA2D
:1010700040420B902D20119006E00B9800F0F3FAFF
:1010800030317F1E0B9039701099481E0029109046
:10109000F3DC0B980028F0D111987F1E387020885F
:1010A000000501D5452000E065207F1E387001A8AD
:1010B000C01BC01D0B900F98002800D001204119C3
:1010C0000098C01709180B980818A169081A401E43
:1010D000A0612078C00602D42046FFF711FB0F98CC
:1010E000002805D06268A1689047206A401C2062F1
:1010F0002078C00625D52046FFF702FB21E0002E10
:1011000007DB0E98B04204DD03A86268805DA16829
:1011100002E06268A16830209047206A761C401C7B
:1011200020620098401E002800900AD100F0D6FAF4
:10113000C06862680168405CA1689047206A401CF2
:10114000206228466D1E0028D9DC07E062683878E6
:10115000A1687F1C9047206A401C20620B99481EA2
:1011600000290B90F2DC2046FFF7E0FA032042E66C
:1011700001FCFFFF104D0000E1DFFFFFD21DF0B5C5
:1011800004460D46D0088DB0C00046680768314659
:10119000384604F07FFC0246F00F01D02D2307E013
:1011A0002068810701D52B2302E04007C00F4301CF
:1011B0006846002B037001D0012000E00020032AC4
:1011C0000A9001D0072A04DB2946204600F0B0FA35
:1011D0002DE12078800601D40D2500E0E56970003E
:1011E000400D0D2D01904BDA300D00210B9008467B
:1011F0000020C046032189050840002E05DA820040
:101200008018C20F1018401008408015012801DD19
:101210000020C043A9000023182906D39C460A4693
:101220000123183A1B07D34003E001221205CA40EC
:1012300094460C31202902D33A46203900E0324648
:101240008A40002802DD002A06D119E0002817D1C3
:101250000121C9078A4213D3194663467F185E41AC
:10126000002806D10120C007824202D108468743E8
:101270009E430B98310D814202D00198401C019091
:101280002088000502D57149794402E06F4979440C
:1012900019396B460A9830221A540A980A7C401C65
:1012A0001A54401C0A900198002801DC302000E00C
:1012B00031201872019A0120002A02D0644BD21802
:1012C00004E072003A4302D0614A521C0192002DA0
:1012D00002DC2278120703D56A462E2050720220C3
:1012E0000022864694460CE032033601120F6D1E32
:1012F0008B5C02AA13546246521C401C9446052A79
:1013000001DA002DF0DC002202AE08E03B0F3F01C5
:10131000CB5C521C6D1E3354401C082A01DA002D90
:10132000F4DC23689A0601D511E0401E704504DD07
:101330003218203AD27F302AF7D0002807DD321841
:10134000203AD27F2E2A02D11A0700D4401E002D47
:1013500003DD3E223254401C6D1E497C31540199FC
:10136000401C002906DA2D21471C315401984042C7
:10137000019003E02B21471C315401987D21C900C5
:10138000884206DBFFF70CF93030F0557F1C0191E5
:1013900001E0642808DB01986421FFF701F930308F
:1013A000F0557F1C019101E00A2806DB01980A2113
:1013B000FFF7F6F83030F0557F1C01980A21FFF74F
:1013C000EFF83031F1550A98A1697F1C7A1910188D
:1013D000081AA0612078C00602D42046FFF790F9D1
:1013E000216A6E460A980818206204E06268307824
:1013F000A168761C90470A98401E0A90401CF5D1BF
:101400002078C00602D52046FFF77AF902AE09E03F
:101410003078761C3E280DD06268A1689047206A1B
:10142000401C20627F1EF3D22046FFF77FF90DB0EB
:101430000320F0BD206A4019206203E06268A168C1
:10144000302090476D1EEDD3F8E7000010490000F2
:1014500001FCFFFF01694A1C02610878704700B572
:101460008FB00291002105910549019379440391C0
:10147000114604906846FFF71DFB0FB000BD000049
:10148000E5FFFFFF10B54369002B02D0C046C04600
:1014900001E0FFF76EF9012010BD127801462431FA
:1014A0000A7000224A700122ECE711680022D24340
:1014B000E8E710B54369002B02D0C046C04601E002
:1014C000FFF7DEF9012010BD128801462431828425
:1014D0000022C2840122ECE711680022D243E8E72F
:1014E000C06880210840704710B543485421FFF779
:1014F00006F842485421FFF702F841485421FEF70C
:10150000FEFF40483C493D4B404A01603E48036075
:101510003B4810605A1C0A65411C19650121016590
:101520003C48354A3AA1784400F098FC002804D1A0
:10153000384878440C3800F037FD38482F4A36A137
:10154000784400F08BFC002804D1344878440C38EF
:1015500000F02AFD32482A4A2FA1784400F07EFC90
:10156000002804D12E4878440C3800F01DFD40239B
:101570002148DC000021224600F04AFC002804D06B
:10158000244878445C3800F00FFD1C482246402374
:10159000002100F03DFC002804D0204878445C384D
:1015A00000F002FD164822461023002100F030FC16
:1015B000002804D01A4878445C3800F0F5FC10BDCF
:1015C0000F4870B5006D44080B48640000F0BEFC85
:1015D0000A4800F0BBFC0A4800F0B8FC09E0206DA6
:1015E000450820466D0000F0B1FC204600F07AF876
:1015F0002C46002CF3D170BD400000209400002048
:10160000E800002000000020040000200800002066
:101610007200000072470000770000005F47000082
:1016200036470000F8B516460C46054600F04EF861
:101630000368FF200230C05C012807D0FF2C0FD8C0
:10164000185D00280CD001202C70F8BDFF33324605
:10165000214608331868C71828460023B847F8BD44
:101660000020C043F8BD01468008081A020910187E
:10167000020A1018020C1018C0088200121852003A
:10168000891A01E0401C0A390A29FBD270477546C5
:1016900000F090FCAE46050069465346C008C00005
:1016A000854618B020B5FEF709FE60BCB646002698
:1016B0000027C0C5C0C5C0C5C0C5C0C5C0C5C0C560
:1016C000C0C5403D490849008D46704710B500F03F
:1016D00005F8001D10BD00BF2544000000487047FC
:1016E0005C01002070B50446051F00F067FC00682F
:1016F000002C1AD0446801E020466468002C01D018
:10170000AC42F9D301680A18AA4204D12A680546F6
:101710008918016000E0456028684119A14205D19F
:101720006168696021684018286070BD6C6070BD98
:10173000F8B51F46044601230068DB020326014674
:101740001840072A05DB002801D017A506E017A5D9
:1017500004E0002801D016A500E016A51020814362
:101760002160A069C01E002FA06101D0401EA061B1
:101770002046FEF7C5FF002F09D038466268A168F1
:101780009047206A401C2062C01C206206E0206A4C
:10179000FAE762682878A1686D1C9047761EF8D237
:1017A0002046FEF7C3FFF8BD4E414E006E616E004D
:1017B000494E4600696E6600F7B516468AB0334852
:1017C00078446C4603467C33C06F5A689B680DC4EE
:1017D0002E487844763003AC0DC80DC43720C001C4
:1017E000081837211B30FEF7DBFE05460C46803D0E
:1017F0001B3C02D56442012000E000200027099034
:1018000010E0E0070CD00C202049784379443246A0
:101810004C3941186846012300F054FA6B4607C35F
:1018200064107F1C002CECD1184F7F442E3F16E033
:10183000E80712D02001C0190EC80691089307923C
:101840000068F04201D1981908903246012306A998
:1018500003A800F037FA03AB07C36D10641C002D1A
:10186000E6D10998002806D032466946012303A82C
:1018700000F07EFA05E001233246694603A800F035
:1018800021FA0A9B07C30DB0F0BD0000EC43000035
:10189000034640000A4610B5400D0BD00121C90790
:1018A0000F24A40200191C0364082143540D214392
:1018B000D20207E000210120F2E7D40F49002143C2
:1018C0005200401E0029F8DADB0FDB07184310BD79
:1018D000FFB50D46144685B04868516804F0C2F85B
:1018E00000910190A868A16804F0BCF802910390EF
:1018F000A868616804F0B6F8029A1218824202924F
:1019000001D2012000E00020019A0B18D218002813
:10191000019202D08A4202D903E08A4201D2012018
:1019200000E000200099081800906868A16804F0A1
:1019300099F8029A12188242029201D2012000E024
:101940000020019A0B18D2180028019202D08A4276
:1019500002D903E08A4201D2012000E00020009970
:10196000081800902868216840004900400849088C
:101970004018FA49471814E001994000C90F08437C
:101980000090019802994000C90F08430190029805
:1019900003994000C90F08430290039840007F1E3E
:1019A000039000980028E7DA0898002801D0EC4E50
:1019B00000E00026B74201DA012000E00020002804
:1019C00004902AD0F71BF806C00E15D0029B2021E8
:1019D000091A039A8B401A430392029A019BC24050
:1019E0008B401A430292019A009BC2408B4000999F
:1019F0001A430192C14000917B110DD06F46032024
:101A0000C11A03D500218200B95003E08A00810089
:101A1000BA587A50401EF3D53746039802990028E9
:101A200000D00120014308980291002808460CD0FC
:101A3000002800D001200199019A4905084301219D
:101A4000D20AC902D202019200E001210E9B0122BA
:101A5000D207012B02D0002B03D013E0002807D1BE
:101A600020E0904204D890420CD1019B0B4209D057
:101A7000019B5918019105D10099491C009101D190
:101A80007F1C009200280DD0102108460020C0467F
:101A90000498002806D00F98002803D00821084693
:101AA0000020C04628682168019B009A4840C10F69
:101AB0000598C90739430EC009B0F0BDFFB587B01E
:101AC000099A089808995368926840688968964608
:101AD0000022039317469446089A12685300099A05
:101AE0005B081268520052089A1A9E4BD4180A9A40
:101AF000002A01D0352200E0402206920022012374
:101B000015460492DB07059324E0002D05D17546A8
:101B10000346039E4D1BB34109D375466646039B9E
:101B2000491B049D9841059B7519AC465F4163466E
:101B30003B4308D0059B049EDD0776082E435B08D7
:101B40000496059301E0521E641EC50FED07491867
:101B50004041521C069B9A42D7DB002D04D17546AA
:101B6000039A6B1A824101D203200CE0039A0B46C0
:101B70006B404240134303D0014303D0012002E0F5
:101B8000022000E0002061460191002100970291AF
:101B90000A99002905D0614640020143704B01912A
:101BA00002E08007002302909C4201DA012000E05D
:101BB000002007003AD01A1BD006C00E15D0029D97
:101BC0002021019C091AC5408C402543029C8C4071
:101BD00000D001242543019C0295009DC4408D4006
:101BE00000992C430194C140009154111DD06D46C1
:101BF0000221002202290CD10320001B07E000284B
:101C000004DB8600AE59002E00D00122401C0328C0
:101C1000F5DB081B02D588002A5004E08000285814
:101C200010438A00A850491EE3D51C460A98002894
:101C300002980CD0002800D001200199019A490592
:101C400008430121D20AC902D202019200E0012117
:101C5000109B0122D207012B02D0002B03D013E0EE
:101C6000002807D11FE0904204D890420CD1019B7C
:101C70000B4209D0019B5918019105D10099491CCB
:101C8000009101D1641C009200280CD0102108465C
:101C90000020C046002F06D01198002803D008214C
:101CA00008460020C04608980999019A009B0068E0
:101CB00009684840C10F0798C907214382600AC0DC
:101CC0000BB0F0BD00B585B0019300920A46014605
:101CD000002302A8FFF7FCFD02A807C805B000BD5D
:101CE000FFB50A461F4685B007990193012300916D
:101CF000014602A8FFF7ECFD02990398049ECA0F63
:101D00004900D20700920F22490892028C1A002142
:101D1000002800DB0C46450013486D08844214D3AC
:101D2000079A002A04DA441E0026104DF64302E00A
:101D300004460D460E46102108460020C046002FDE
:101D400003D0042108460020C0462005E90A0843C4
:101D5000009908436905F20A1143ADE602C0FFFF8E
:101D6000013C0000FF3F0000FF070000FFFFFF7F76
:101D700000B585B0019300920A460146002302A8EF
:101D8000FFF79CFE02A807C8A8E7FFB50A461F4652
:101D900085B00799019301230091014602A8FFF73E
:101DA0008DFE02990398049ECA0F4900D207009243
:101DB0000F22490892028C1A0021002800DB0C46F1
:101DC000450011486D08844214D3079A002A04DAAA
:101DD000441E00260D4DF64302E004460D460E4615
:101DE000102108460020C046002F03D004210846D9
:101DF0000020C0462005E90A084300990843690508
:101E0000F20A114358E60000FF070000FFFFFF7FC2
:101E100070B5C468A50713D0650211D4D51FF93D6C
:101E20000AD0FF3D6D1E07D0FF3DFF3D022D07D1BB
:101E300001462431012305E0074E5D1EB54201D362
:101E4000012070BD0161C36141600F2109028C4313
:101E50001443C460002070BDFFFFFF00F7B51646B5
:101E60000C460098002843D0104600F06FF8207808
:101E7000611C61280AD0722802D0772839D102E08B
:101E80000125002404E00225042401E02D4D08244E
:101E90000222032301270878491C2B2806D0622838
:101EA00007D02039C87F742807D008E01D431443A9
:101EB000F1E7042005433C43EDE71020044300987C
:101EC000214600F097FA411C13D000213161716066
:101ED0000121F5604902F1617061200704D53046A7
:101EE0000222002100F0E6F8306D384330653046BC
:101EF000FEBD0020FEBDF8B50D460646124C206D15
:101F0000C10704D0410804D044086400F7E7224622
:101F100010E0542000F09CF8070010D07908206DE4
:101F20004900012211430843542120653846FEF739
:101F3000E6FA3A4629463046FFF790FFF8BD002002
:101F4000F8BD00000280000040000020FEB50446FD
:101F5000466900690F4F0190E56800200090A807CE
:101F600007D0204600F050F9304603F023FB00284C
:101F700001DA3846FEBD280502D50198FFF7B2FB0D
:101F80004C212046FEF7BBFA206D4008400020653A
:101F90000098FEBDFFFFFFFF10B50446C046C046D7
:101FA0002046FEF75FF910BD10B500F07BF900F098
:101FB00073F910BD004870473C010020004870478D
:101FC00044010020704770477047704738B5044699
:101FD0000A4600206946C046C046002805D0024691
:101FE0002046009900F07FF9012038BD10B501208E
:101FF00000F0CEF910BDF8B5C046C0460546002039
:102000000C461020C0460646A819A0420DD93246FB
:1020100069460020C046C046070001D100F0B8F96B
:102020000098A04200D00546C419FFF7C7FFF61D6F
:1020300007460560F008C0004619284600F04CF934
:10204000B44204D031463868A21B00F04CF9F8BD08
:1020500070B50646FFF7B2FF056830460B30C4087E
:10206000E400B44201D8002070BD68682A46002808
:1020700018D00168A14211D30B46214608318B428A
:1020800008D3436801194B6003681B1B0B60516048
:10209000046001E041685160001D70BD0246406867
:1020A0000028E6D121462846FFF790FF0028DCD122
:1020B00070BD0000F8B5044616460D464769007B22
:1020C000800730D0384603F0BDFA00282BD13246C5
:1020D0001026002A25D0012A02D0022A23D104E0AA
:1020E000204600F01AF945191BE0384603F088FA3B
:1020F000E16831430028E16004DA204600F054F83A
:102100000120F8BDC9030BD56268E16A914200D88D
:102110001146A26989182269891A814200DD0846A0
:102120002D18002D01DA0220F8BDE16A6068E2682E
:10213000814206D29103E06203D5012149048A431A
:102140003243A669AE4211DCE16A814201D90B46F5
:1021500000E003469F192369FF1AAF4206DD814262
:1021600001D90F4600E007469F4206D120200243D6
:102170000020A060A56220600DE0AD1BE669AE1BEB
:102180008142A66000D90846C01A281A2060581952
:10219000606020208243034802400020E260403417
:1021A0002072F8BDBFCFD7FFC168802211439203D0
:1021B0009143C1600021816001607047F7B514460A
:1021C0000E463348D5685769054209D03846A1699B
:1021D00003F05AFA002811DB2D48C0430540E560A2
:1021E0002B4632463846009903F074FA4200A16942
:1021F0005208B21A89180028A16104D02046FFF7BE
:10220000D3FF0020C043FEBD70B504460569C06A17
:102210006168884200D80846E1680522D2049143EB
:10222000E160C90314D5A84209D02246411B2846C3
:10223000FFF7C4FF002802D00020C04370BDE56254
:1022400000206560A060E068012109048843E06027
:10225000002070BD10B50446C06820218843E060AE
:10226000A16AA06988420ED02046FFF7CDFFE06842
:1022700003210903884310210843E060A06AA0619C
:102280002069E06260600349E0680840E06010BDDA
:1022900010000200BFBFFFFF10B5002801D003F0FF
:1022A000ABF910BD10B5014602A000F057F80120AF
:1022B00010BD000053494752545245443A205265DC
:1022C0006469726563743A2063616E2774206F706D
:1022D000656E3A20000000000021016041608060CE
:1022E00070471020704710B50346406801E0034670
:1022F0004068002801D08842F9D31868C3188B427F
:1023000006D0CB1CD808C000001D411A521A014645
:10231000081D0A60FFF7E6F910BD10B50146C26856
:10232000900703D0900607D5886A0AE000F036F8D7
:1023300001210160881E10BD8B694868C0180B69B7
:10234000C01A40310B7A002B02D0497A401A10BDD6
:102350001103FCD50028FADD401E10BD70B50546FE
:102360000C460A2000E06D1C03F0F4F9002D06D0A5
:1023700028780028F7D102E0641C03F0EBF9002C68
:1023800002D020780028F7D10A2003F0E3F970BDCD
:1023900010B500F007F8FFF77FFF10BD0048704749
:1023A0003C01002010B5012805D0002103A0FFF753
:1023B000D5FF012010BD09A1F8E70000534947529D
:1023C000544D454D3A204F7574206F662068656105
:1023D00070206D656D6F7279000000003A204865CD
:1023E0006170206D656D6F727920636F72727570A8
:1023F0007465640082B001900091012002B07047C2
:1024000080B582B000F092F8254802F055F82549D1
:102410000020086001A90870FFE701A80078632880
:102420000FDCFFE701A8007841004C48425A1D49E3
:10243000086880180860FFE70198401C01A908702F
:10244000EBE7184800686421FEF7A0F8014616483B
:10245000016000681549096848631548007832280A
:1024600011DBFFE71348009000683221FEF78EF879
:102470000099114A1060114A012010700C4A002086
:10248000107008600AE00A490878401C0870064885
:1024900002680849086880180860FFE702B080BD3C
:1024A00000240140F007002064020020D402002034
:1024B0007C020020F4070020740200206802002043
:1024C00080B5254802F088F800280AD0FFE7FFF71A
:1024D00097FF0448082100F0D7FC1F4802F034F8A9
:1024E000FFE780BD0008004880B586B0014605A81A
:1024F00001700078C00700280BD0FFE71648039052
:102500000121049102F058F80398049902F044F86C
:102510000AE0114801900121029102F01DF8019892
:10252000029902F029F8FFE706B080BD80B582B0BD
:102530000020FFF7D9FF0848009001210191642293
:1025400002F06CF800980199044A02F09DF8019895
:10255000FFF7CAFF02B080BD000002409C010020CE
:1025600081B0EFF3108072B60090FFE7FEE7000045
:1025700082B001901F480078002803D1FFE70020B7
:1025800000900BE001998803420EF248805C4905F7
:10259000490FC840012108400090FFE7009802B0B1
:1025A0007047C04680B584B0FFE71248806902904A
:1025B00000F0BEFA03900398029988420DD2FFE71B
:1025C00002F0F6F9002807D1FFE70A490869401C24
:1025D000086102F041FFFFE7FFE7039802F044FFC4
:1025E0000190FFE7029801998842DED1FFE7039846
:1025F00004B080BDC007002080B58EB00B900A915A
:1026000009920A98002804D0FFE70998812803D38B
:10261000FFE700200C90D7E00B98FFF7A9FF0028F8
:1026200003D1FFE701200C90CEE0FFF7BBFF07903E
:102630000BA800880B90EFF305800D900D98411EBC
:102640008841C1040B9808430B900A980890099898
:1026500000280AD1FFE70B98079900231A4600F0DB
:10266000B9F8039003980C90AEE0099808281BD89D
:10267000FFE70020049005900899099A04A8FDF747
:10268000DFFE09984007410B0B9808430B900B980D
:102690000321090608430799049A059B00F09AF85C
:1026A000039003980C908FE000F060FA4007400B15
:1026B0000690089802900279417909028A18837974
:1026C000C1790902C918090489180591027841786D
:1026D000090289188278C078000280180004401826
:1026E00004900898083008900998083809900699CD
:1026F0000B9808430B900B98012109060843079992
:10270000049A059B00F066F803900398002803D113
:10271000FFE700200C9057E006982D4908430B90E6
:10272000FFE70998092830D3FFE70898019002795C
:10273000417909028A188379C1790902C918090403
:102740008918059102784178090289188278C07841
:10275000000280180004401804900898083008907F
:102760000998083809900B980799049A059B00F07E
:1027700031F803900B98401C0B900398002803D16C
:10278000FFE700200C901FE0CBE7002004900590AD
:102790000899099A04A8FDF753FE0B98FF21090236
:1027A00088430B90099801020B9808430B900B98F3
:1027B0000121490608430799049A059B00F00AF88D
:1027C000039003980C90FFE70C980EB080BDC046B4
:1027D00001FF000080B58CB00A9009910892079320
:1027E00007200590FFE70598002860D0FFE700F07C
:1027F000C3F9049004988006810DB94840180690EA
:10280000049880030F210905084001900A98019956
:1028100008430999C90F090708430899C90F4907CF
:1028200008430799C90F890708430321890608430C
:10283000039006980C30039902F08EF8039003A8D9
:10284000C078400700282DD5FFE7039801218A06AC
:10285000504003900398C9074840039003980840EC
:102860000290099816490840029A1043069A10608F
:1028700008980840029A1043069A5060079808404A
:10288000029908430699886006980C30039902F073
:10289000BBFD002805D0FFE701F064FD01200B908F
:1028A0000AE004E0FFE70598401E05909BE701F071
:1028B00053FD00200B90FFE70B980CB080BDC04685
:1028C000FFFFFF7F87B00590049103920498FE28D4
:1028D00004D8FFE70398FF2803D3FFE70020069002
:1028E00034E0002002900190FFE7019803282AD8E5
:1028F000FFE705980199C840C00700281BD0FFE7F3
:1029000004980090FFE700980399884212D8FFE7E7
:102910000099072208461040012383400298C90805
:1029200042186C49885C18438854FFE70098401CA3
:102930000090E8E7FFE7029820300290FFE7019857
:10294000401C0190D1E701200690FFE7069807B0F0
:102950007047C0464007002080B58AB009900891B2
:1029600088490191002008705A488021FDF7C7FD71
:102970005948182102F064FF0146019806AA118007
:10298000006A5649884208D0FFE77E4953480862EA
:10299000069848800120C86112E07A48408806A95C
:1029A0000988884206D0FFE70698764948800120CA
:1029B000C86104E07349C869401CC861FFE7FFE7CC
:1029C0007048C06901280CD1FFE76E4900204870AB
:1029D00048608860C860424801218902FDF78FFD88
:1029E0001EE000200290FFE702983F2817D8FFE77B
:1029F000029801013A48401807900798C07B4007A9
:102A0000002807D5FFE70799C8680322920690437C
:102A1000C860FFE7FFE70298401C0290E4E7FFE789
:102A20005848C069012816D1FFE700F09DF80490CE
:102A30000498002803D0FFE72A48059002E0002010
:102A40000590FFE705984F494861002088610861BB
:102A50002549087015E000F087F8049004980028D4
:102A600003D0FFE71F48059002E000200590FFE734
:102A70000598444948610020886108611A49087036
:102A8000FFE70498002822D0FFE709980021FE22E2
:102A90000092FFF717FF0F20EF221146FFF712FFFA
:102AA000009A04201146FFF70DFFFFF77BFD03900E
:102AB00003993448C26943690C48FFF78BFE0898B4
:102AC000002803D0FFE700F013F8FFE7FFE70498C2
:102AD0000AB080BD400700205C5C00086B27A5E1C0
:102AE0004003002040420F007102002000FF00035D
:102AF00080B584B023480078002803D0FFE7012088
:102B000003900FE01F49012001900870FFF74AFD74
:102B100002900299054800231A46FFF75BFE0198D0
:102B20000390FFE7039804B080BDC04601FF000397
:102B300081B0FFE7F44900200870F2480068009077
:102B4000EF48006807490968401A00994018401E7C
:102B50000090FFE7EC4800780028EBD1FFE70098F1
:102B600001B0704718E000E00120704780B50548CB
:102B7000401C02F00EFE80BD80B50248001D02F030
:102B8000EDFD80BDC00700208CB00B900A910020A5
:102B90000990FFE70A9800680999C840002800D109
:102BA0005DE10A980068099A012191400840089067
:102BB0000898002800D14EE10A9840680321084097
:102BC000012807D0FFE70A9840680321084002283F
:102BD0002CD1FFE70B9880680790099840000321EB
:102BE00081400798884307900A98C1680998400077
:102BF000814007980843079007980B9988600B98C5
:102C00004068079009980121814007988843079000
:102C10000A984068102108400109099881400798E6
:102C20000843079007980B994860FFE70A984068A7
:102C300003210840032816D0FFE70B98C0680790CF
:102C400009984000032181400798884307900A981B
:102C500081680998400081400798084307900798C9
:102C60000B99C860FFE70A984068032108400228D2
:102C700020D1FFE70B980999C90889004018006A1C
:102C8000079009984007C00E0F218140079888439C
:102C900007900A98016909984007C00E814007987B
:102CA0000843079007980B99099AD208920089184F
:102CB0000862FFE70B98006807900998410003201D
:102CC00002468A400799914307910A994968014051
:102CD00009984000814007980843079007980B998E
:102CE00008600A9880798007002800D1B2E0FFE7E9
:102CF000B748026801210A43026000680840069054
:102D00000698FFE7099803218843564940580790E1
:102D100009988007000F0F2181400798884307908A
:102D20000B980921C906884203D1FFE700200590CE
:102D30002DE00B984C49884203D1FFE70120049015
:102D400022E00B984949884203D1FFE70220039013
:102D500017E00B984649884203D1FFE70320029011
:102D60000CE00B99434A0420052300939142019003
:102D700001D00098019001980290FFE7029803901B
:102D8000FFE703980490FFE704980590FFE7059993
:102D900009988007000F814007980843079007981B
:102DA0000999032291432F4A8850334800680790BD
:102DB00008990798884307900A988079C0060028E8
:102DC00005D5FFE70899079808430790FFE707989C
:102DD000294908602948006807900899079888439E
:102DE00007900A9880798006002805D5FFE70899A2
:102DF000079808430790FFE7079820490860204894
:102E00000068079008990798884307900A98807986
:102E10008007002805D5FFE7089907980843079021
:102E2000FFE7079816490860164800680790089958
:102E30000798884307900A988079C007002805D032
:102E4000FFE70899079808430790FFE707980D499F
:102E50000860FFE7FFE70998401C09909AE60CB06C
:102E60007047C046080001400004004800080048C0
:102E7000000C004800100048080401400C04014008
:102E8000040401400004014083B0029001A80180C5
:102E9000029949690091009A01881046084000048F
:102EA000914340180299886103B0704783B0029043
:102EB00001A80180684602700078002805D0FFE76D
:102EC00001A800880299886104E001A8008802999D
:102ED0008862FFE703B070470C4800687047C0463F
:102EE00007480268074908688018086006490120F9
:102EF00008702848027805490868801808607047FB
:102F000014E000E06C02002070020020F8070020AE
:102F100080B582B0AC4908681022104308600020D8
:102F2000019000F005F800F039F8019802B080BD7A
:102F300080B584B00290A8480068019015480178D7
:102F40007D20C000FDF722FB01460198FDF71EFB26
:102F500000F0A2FD002804D0FFE703A901200870BB
:102F600014E00298032809D8FFE702990022D04311
:102F700000F032F802980849086003E003A9012034
:102F8000087003E003A900200870FFE703A8007899
:102F900004B080BD100000201400002082B0FFE7C4
:102FA0000B48026801210A43026000680840019052
:102FB0000198FFE7FFE707480268012109070A4374
:102FC00002600068084000900098FFE702B0704778
:102FD000181002401C10024080B584B0034603A8BC
:102FE000037002910192007840B2029902F09EFAB9
:102FF00004B080BD80B586B0049003910498002889
:1030000004D1FFE705A901200870D9E003986E49B3
:10301000096801221140884212D9FFE76A48026814
:1030200001218A43039B1A43026000680840039908
:10303000884204D0FFE705A901200870C0E0FFE73F
:10304000049800788007002816D5FFE704980078D8
:103050004007002807D5FFE7A149086807221202A8
:1030600010430860FFE79E490868F0229043049AE5
:10307000926810430860FFE704980078C0070028B2
:1030800061D0FFE70498406801280BD1FFE74F4863
:1030900000688003002804D4FFE705A90120087018
:1030A0008EE02CE00498406802280BD1FFE74748E7
:1030B00000688001002804D4FFE705A901200870FA
:1030C0007EE01BE00498406803280BD1FFE74048EE
:1030D00000688003002804D4FFE705A901200870D8
:1030E0006EE00AE0394800688007002804D4FFE752
:1030F00005A90120087063E0FFE7FFE7FFE77849D3
:10310000086803229043049A526810430860FFF74E
:10311000E3FE0290FFE7724800680C210840049922
:103120004968890088420DD0FFE7FFF7D5FE029974
:10313000401A2A49884204D3FFE705A903200870F2
:103140003EE0E8E7FFE703981F49096801221140C4
:10315000884212D2FFE71C48026801218A43039B80
:103160001A430260006808400399884204D0FFE7D0
:1031700005A90120087023E0FFE7049800784007C4
:1031800000280AD5FFE75649086807221202904333
:10319000049AD26810430860FFE700F021F8504914
:1031A0000968C9B20A090B49895CC8400A49086024
:1031B00000200190FFF7BCFE019805A90870FFE709
:1031C00005A8007806B080BD002002400010024033
:1031D00034100240445C00080C00002089130000F9
:1031E00080B586B000200590049003900290019075
:1031F0003B480068059005980C21084000900C2879
:1032000068D80098810001A040588746D332000852
:10321000D5320008D5320008D53200084132000806
:10322000D5320008D5320008D532000847320008F0
:10323000D5320008D5320008D5320008CD3200085A
:103240002C48019049E005990F20820411408A0C16
:103250002549895C02912549096801402448405C60
:10326000049005980321C9030840012109048842FC
:103270000BD1FFE7049A1F4800231946FDF749F8D0
:10328000029AFDF72EF803901DE005980321C9036B
:10329000084088420BD1FFE7049A124800231946E0
:1032A000FDF737F8029AFDF71CF803900AE0049A3C
:1032B000104800231946FDF72CF8029AFDF711F883
:1032C0000390FFE7FFE70398019006E005480190AF
:1032D00003E0FFE707480190FFE7019806B080BDD3
:1032E00004100240006CDC02745C00082C100240E8
:1032F000845C000800127A0080B588B006900698B9
:10330000002804D1FFE707A901200870B1E306985F
:103310000078C007002800D197E0FE4800680C2123
:103320000840042811D0FFE7FA4800680C21084043
:1033300008281AD1FFE7F74800680321C9030840AD
:1033400001210904884210D1FFE7F3480068800397
:10335000002809D5FFE706984068002804D1FFE758
:1033600007A90120087084E36EE0FFE70698406833
:10337000012807D1FFE7E849086801221204104339
:1033800008602CE00698406800280BD1FFE7E2496E
:103390000868012213049843086008689204904367
:1033A00008601BE00698406805280BD1FFE7DA4962
:1033B0000868012293041843086008681204104347
:1033C00008600AE0D44908680122130498430860A1
:1033D0000868920490430860FFE7FFE7FFE7FFE714
:1033E00006984068002817D0FFE7FFF775FD0590A5
:1033F000FFE7C9480068800300280CD4FFE7FFF707
:103400006BFD0599401A652804D3FFE707A903203F
:1034100008702EE3EDE716E0FFF75EFD0590FFE78D
:10342000BD480068800300280CD5FFE7FFF754FD76
:103430000599401A652804D3FFE707A903200870FF
:1034400017E3EDE7FFE7FFE7FFE70698007880075F
:1034500000287AD5FFE7AF4800680007800F0028F2
:1034600011D0FFE7AB4800680C210840082824D1A0
:10347000FFE7A84800680321C90308400121C903E8
:1034800088421AD1FFE7A44800688007002809D5C0
:10349000FFE70698C068012804D0FFE707A90120CC
:1034A0000870E6E29C490868F8229043069A12697F
:1034B000D20010430860FFE746E00698C068002885
:1034C00025D0FFE794490868012210430860FFF700
:1034D00003FD0590FFE790480068800700280CD4A2
:1034E000FFE7FFF7F9FC0599401A032804D3FFE72B
:1034F00007A903200870BCE2EDE787490868F822B5
:103500009043069A1269D200104308601BE082497A
:103510000868012290430860FFF7DEFC0590FFE792
:103520007D480068800700280CD5FFE7FFF7D4FC32
:103530000599401A032804D3FFE707A90320087060
:1035400097E2EDE7FFE7FFE7FFE70698007800075F
:1035500000283ED5FFE70698C06900281CD0FFE789
:103560006E490868012210430860FFF7B5FC05901A
:10357000FFE76A480068800700280CD4FFE7FFF7E0
:10358000ABFC0599401A032804D3FFE707A90320E1
:1035900008706EE2EDE71BE0604908680122904385
:1035A0000860FFF799FC0590FFE75C48006880071A
:1035B00000280CD5FFE7FFF78FFC0599401A032878
:1035C00004D3FFE707A90320087052E2EDE7FFE705
:1035D000FFE7069800784007002800D4C1E002A960
:1035E000002008704E480068C000002810D4FFE793
:1035F000FFE74B480268012109070A43026000689F
:10360000084001900198FFE702A901200870FFE738
:1036100044480068C00500281DD4FFE741490868F8
:103620000122120210430860FFF756FC0590FFE7E5
:103630003C480068C00500280CD4FFE7FFF74CFCAD
:103640000599401A652804D3FFE707A903200870ED
:103650000FE2EDE7FFE7FFE706988068012806D153
:10366000FFE73149086801221043086029E0069805
:10367000806800280AD1FFE72B490868012290439F
:103680000860086804229043086019E00698806882
:1036900005280AD1FFE7FC490868042210430860A6
:1036A000086801221043086009E0F7490868012210
:1036B000904308600868042290430860FFE7FFE732
:1036C000FFE7FFE706988068002818D0FFE7FFF7BC
:1036D00003FC0590FFE7EC480068800700280DD444
:1036E000FFE7FFF7F9FB0599401AE849884204D340
:1036F000FFE707A903200870BBE1ECE724E0FFF730
:10370000EBFB0590FFE7E0480068800700281AD52A
:103710000CE0C04604100240001002402410024099
:103720001C1002400070004020100240FFF7D4FB44
:103730000599401AD549884204D3FFE707A9032019
:10374000087096E1DFE7FFE702A80078012807D1BB
:10375000FFE7CC4908680122120790430860FFE7A1
:10376000FFE706980078C006002864D5FFE70698B2
:103770004069012829D1FFE7C549086804221043A0
:1037800008600868012210430860FFF7A5FB059058
:10379000FFE7BF480068800700280CD4FFE7FFF769
:1037A0009BFB0599401A032804D3FFE707A90320D0
:1037B00008705EE1EDE7B6490868F8229043069A82
:1037C0009269D2001043086034E006984069401DB9
:1037D00000280ED1FFE7AE49086804229043086034
:1037E0000868F8229043069A9269D2001043086054
:1037F0001FE0A749086804221043086008680122F6
:1038000090430860FFF768FB0590FFE7A048006859
:10381000800700280CD5FFE7FFF75EFB0599401AEB
:10382000032804D3FFE707A90320087021E1EDE78F
:10383000FFE7FFE7FFE7069800788006002867D5D6
:10384000FFE78E4800680C2108400C280FD0FFE7E6
:103850008A4800680C210840082818D1FFE78748EB
:1038600000680321C9030840884210D1FFE7884857
:1038700000688003002809D5FFE70698006A012840
:1038800004D0FFE707A901200870F2E03FE00698A6
:10389000006A00281DD0FFE77D4908680122120454
:1038A00010430860FFF718FB0590FFE778480068B1
:1038B000800300280CD4FFE7FFF70EFB0599401AA0
:1038C000032804D3FFE707A903200870D1E0EDE740
:1038D0001CE06F4908680122120490430860FFF75A
:1038E000FBFA0590FFE76A480068800300280CD5C2
:1038F000FFE7FFF7F1FA0599401A032804D3FFE721
:1039000007A903200870B4E0EDE7FFE7FFE7FFE752
:103910000698406A002800D1A7E0584800680C21AA
:103920000840082871D0FFE70698406A02284ED167
:10393000FFE7534908680122120690430860FFF729
:10394000CBFA0590FFE74E480068800100280CD5AF
:10395000FFE7FFF7C1FA0599401A032804D3FFE7F0
:1039600007A90320087084E0EDE7FFE749490868EC
:103970000F229043069A126B104308603F49086873
:103980007B22D2039043069BDA6A9B6A1A43104358
:103990000860FFE73A4908680122120610430860F0
:1039A000FFF79AFA0590FFE7354800688001002884
:1039B0000CD4FFE7FFF790FA0599401A032804D3C7
:1039C000FFE707A90320087053E0EDE71CE02C494E
:1039D00008680122120690430860FFF77DFA0590FF
:1039E000FFE727480068800100280CD5FFE7FFF7B4
:1039F00073FA0599401A032804D3FFE707A90320A7
:103A0000087036E0EDE7FFE72EE00698406A0128EF
:103A100004D1FFE707A9012008702AE017480068D1
:103A200004901C480068039004980321C9030840CF
:103A30000699896A884211D1FFE703980F2108404F
:103A40000699096B884209D1FFE704980F21890480
:103A500008400699C96A884204D0FFE707A90120F7
:103A6000087006E0FFE7FFE7FFE707A900200870FE
:103A7000FFE707A8007808B080BDC04604100240E8
:103A8000001002401C100240201002408913000068
:103A9000341002402C10024080B582B00190019891
:103AA00001F022F902B080BD85B003900291FFE7DA
:103AB00003983C21405C012804D1FFE704A90220BF
:103AC000087053E003993C2201208854FFE7FFE788
:103AD00003993D22022088540398006840680190B1
:103AE00003980068806800900198702188430190D5
:103AF00002980168019808430190019803990968A8
:103B0000486003980068A649884213D0FFE70398ED
:103B100000680121890788420CD0FFE703980068FC
:103B2000A049884206D0FFE7039800689E49884272
:103B30000ED1FFE7009880218843009002984168E9
:103B40000098084300900098039909688860FFE78F
:103B500003993D2201208854FFE703993C2200206D
:103B60008854FFE704A900200870FFE704A8007844
:103B700005B0704780B582B000900098002804D14D
:103B8000FFE701A9012008703FE000983D21405C5B
:103B9000002808D1FFE700993C22002088540098B3
:103BA00000F038F8FFE700993D2202208854009980
:103BB00001C901F0F7F80099462201208854FFE777
:103BC00000993E220120885400993F228854009990
:103BD00040228854009941228854FFE7FFE700996A
:103BE000422201208854009943228854009944229B
:103BF0008854009945228854FFE700993D2201200E
:103C0000885401A900200870FFE701A8007802B0DD
:103C100080BD000083B002900298006801218907EE
:103C200088420CD1FFE7FFE70F48026801210A43F1
:103C300002600068084001900198FFE712E00298D6
:103C40000068D34988420CD1FFE7FFE706480268C5
:103C500002210A4302600068084000900098FFE7D4
:103C6000FFE7FFE703B070471C10024083B00190EC
:103C700001983D21405C012804D0FFE702A9012002
:103C8000087039E001993D220220885401980068AB
:103C90004349884213D0FFE7019800680121890752
:103CA00088420CD0FFE701980068B949884206D0E5
:103CB000FFE7019800683C49884212D1FFE701986C
:103CC000006880680721084000900098062807D007
:103CD000FFE7019801680868012210430860FFE7C8
:103CE00006E0019801680868012210430860FFE7B8
:103CF00002A900200870FFE702A8007803B070470F
:103D000083B0019001983D21405C012804D0FFE779
:103D100002A9012008703FE001993D220220885449
:103D200001980168C86801221043C86001980068C2
:103D30001B49884213D0FFE70198006801218907D9
:103D400088420CD0FFE7019800689149884206D06C
:103D5000FFE7019800681449884212D1FFE70198F3
:103D6000006880680721084000900098062807D066
:103D7000FFE7019801680868012210430860FFE727
:103D800006E0019801680868012210430860FFE717
:103D900002A900200870FFE702A8007803B070476E
:103DA000002C0140000400400040014080B586B076
:103DB0000490039102A900200870FFE704983C21B9
:103DC000405C012804D1FFE705A902200870AEE09D
:103DD00004993C2201208854FFE7FFE704993D2223
:103DE0000220885404980068806801900198772127
:103DF000884301900198FF210902884301900198AE
:103E0000049909688860039800680090002875D0BC
:103E1000FFE70098102871D0FFE7009820286DD0A8
:103E2000FFE70098302869D0FFE70098402858D075
:103E3000FFE7009850283AD0FFE70098602843D069
:103E4000FFE7009870280DD0FFE7009801210903D3
:103E5000884206D0FFE7009801214903884216D026
:103E600053E056E004980068039B99685A68DB6841
:103E700001F035F804980068806801900198772176
:103E800008430190019804990968886041E004980A
:103E90000068039B99685A68DB6801F020F8049871
:103EA00001688868012292031043886031E0049819
:103EB0000068039A5168D26801F054FA04980068C7
:103EC000502101F027F824E004980068039A516813
:103ED000D26801F06FFA04980068602101F01AF8C6
:103EE00017E004980068039A5168D26801F03AFA22
:103EF00004980068402101F00DF80AE00498006879
:103F00000399096801F006F803E002A9012008708E
:103F1000FFE704993D2201208854FFE704993C22E1
:103F200000208854FFE7029805A90870FFE705A85C
:103F3000007806B080BD000080B588B007900020F2
:103F4000069005900490039002900798006810492D
:103F500088421BD1FFE7FFE70E48026801214904B0
:103F60000A4302600068084001900198FFE7402082
:103F700002900220039000200490059001200690FA
:103F80000920C00602A9FEF7FFFDFFE708B080BDCB
:103F9000000400401410024080B586B004900391E4
:103FA000029201A900200870FFE704983C21405CC0
:103FB000012804D1FFE705A902200870A0E00499B8
:103FC0003C2201208854FFE7FFE7029800900C286C
:103FD00000D987E00098810001A040588746C0467C
:103FE00015400008E5400008E5400008E5400008ED
:103FF00047400008E5400008E5400008E5400008AB
:104000007D400008E5400008E5400008E540000864
:10401000AF40000804980068039900F091FF0498ED
:1040200001688869082210438861049801688869DA
:1040300004229043886103980269049801688869A2
:104040001043886152E004980068039900F0F8FF7B
:104050000498016888690122D30218438861049892
:10406000016888699202904388610398006902029E
:104070000498016888691043886137E004980068F3
:10408000039901F079F804980168C869082210437F
:10409000C86104980168C86904229043C861039804
:1040A000026904980168C8691043C8611EE0049859
:1040B0000068039901F0F2F804980168C8690122C8
:1040C000D3021843C86104980168C86992029043FA
:1040D000C86103980069020204980168C869104326
:1040E000C86103E001A901200870FFE7FFE7049918
:1040F0003C2200208854FFE7019805A90870FFE7DB
:1041000005A8007806B080BD80B582B00090009808
:10411000002804D1FFE701A9012008703FE00098C2
:104120003D21405C002808D1FFE700993C22002097
:104130008854009800F037F8FFE700993D220220EC
:104140008854009901C900F02DFE009946220120F3
:104150008854FFE700993E220120885400993F22AD
:104160008854009940228854009941228854FFE7DE
:10417000FFE7009942220120885400994322885485
:10418000009944228854009945228854FFE70099F9
:104190003D220120885401A900200870FFE701A8F2
:1041A000007802B080BD81B0009001B0704700007F
:1041B00080B58CB00A9009910998002805D1FFE7D5
:1041C0000A983E21405C07901CE00998042805D11C
:1041D000FFE70A983F21405C069010E00998082804
:1041E00005D1FFE70A984021405C059004E00A9859
:1041F0004121405C0590FFE705980690FFE706988F
:104200000790FFE70798012804D0FFE70BA90120DA
:10421000087091E00998002805D1FFE70A993E222D
:10422000022088541EE00998042806D1FFE70A9965
:104230003F2202208854049012E00998082806D1F1
:10424000FFE70A99402202208854039005E00A996A
:104250004122022088540390FFE703980490FFE76F
:104260000498FFE70A98006809990122019200F07A
:104270001DFE01980A990968314A9142029018D0AE
:10428000FFE70A98016801202E4A9142029010D05F
:10429000FFE70A98016801202B4A9142029008D05A
:1042A000FFE70A98006829494018414248410290B6
:1042B000FFE70298C007002808D0FFE70A980168C6
:1042C000486C0122D20310434864FFE70A98006853
:1042D0001B49884213D0FFE70A980068012189072B
:1042E00088420CD0FFE70A9800681949884206D036
:1042F000FFE70A9800681349884212D1FFE70A983D
:10430000006880680721084008900898062807D0B0
:10431000FFE70A9801680868012210430860FFE778
:1043200006E00A9801680868012210430860FFE768
:104330000BA900200870FFE70BA800780CB080BD27
:10434000002C0140004001400044014000B8FEBF85
:1043500000040040FFE7FEE780B505480C3001F09F
:10436000FDF980BD80B50248083001F0F7F980BD45
:10437000C007002081B00090009880685449084030
:10438000401C0099886001B07047C04680B584B079
:104390000390029101A900200870039800F030F802
:1043A000002818D1FFE70398C0680F490840029A17
:1043B000516893681943D268114308430399C86050
:1043C0000398006903218907884302990968084313
:1043D0000399086103E001A901200870FFE701A823
:1043E000007804B080BDC046C73FFFFF81B0009099
:1043F00000988068C00F401E4142484101B070479C
:1044000081B00090009880680121084001B0704799
:1044100080B584B00390029101A900200870039830
:10442000FFF7EEFF002812D1FFE70398C0680C49A0
:104430000840029A11685368194393681943D36876
:1044400019431269114308430399C86003E001A9A5
:1044500001200870FFE701A8007804B080BDC046C5
:104460003CC2FEFF82B001900091009A03480240D6
:104470000199886A1043886202B07047FFFF070005
:1044800082B0019000910198C0680421884300998E
:1044900008430199C86002B0704782B00190009152
:1044A0000198C06803218902884300990843019953
:1044B000C86002B07047000081B00090009880682A
:1044C00003490840001D0099886001B07047C0464C
:1044D000E8FFFF7F82B001900091019840690721B9
:1044E0008843009908430199486102B0704781B040
:1044F0000090009880680121C9070843172188436C
:104500000099886001B0704782B00190019A054817
:10451000016811430160006801990840009000980B
:1045200002B070471410024082B00190019A054811
:1045300001681143016000680199084000900098EB
:1045400002B070471810024081B00090009902201C
:10455000486001B07047000082B00190009101995D
:104560000098954A8018401E027888580123984385
:10457000885002B07047C04682B001900091019906
:1045800000988D4A8018401E02788858022398436C
:10459000885002B07047C04682B0019000910199E6
:1045A0000098854A8018401E0278885801231843D5
:1045B000885002B07047C04682B0019000910199C6
:1045C00000987D4A8018401E0278885802231843BC
:1045D000885002B07047C04681B0009000980068D3
:1045E00002210840400801B07047000083B00290EB
:1045F00001910092029801996F4BC918491E0978E0
:104600004058032109038843009908430299019AFD
:10461000D218521E1278885003B0704783B00290AF
:104620000191009202980199634BC918491E0978BB
:104630004018406806490840009908430299019AC9
:10464000D218521E12788918486003B07047C046CD
:104650000000FFFF83B0029001910092029801993F
:10466000554BC918491E0978405806490840009919
:1046700008430299019AD218521E1278885003B04A
:104680007047C046EFBFFFFF83B0029001910092D8
:1046900000980299019A484BD218521E1278891834
:1046A000C86003B07047C04683B002900191009289
:1046B00002980199404BC918491E09784058802139
:1046C0008843009908430299019AD218521E127821
:1046D000885003B07047C04683B0029001910092A9
:1046E00002980199344BC918491E09784058032192
:1046F00089028843009908430299019AD218521EF0
:104700001278885003B0704783B0029001910092F4
:1047100002980199284BC918491E09784058202150
:104720008843009908430299019AD218521E1278C0
:10473000885003B07047C04683B002900191009248
:1047400000980299019A1C4BD218521E12788918AF
:10475000886003B07047C04683B002900191009218
:1047600002980199144BC918491E097840584021F4
:104770008843009908430299019AD218521E127870
:10478000885003B07047C04683B0029001910092F8
:1047900002980199084BC918491E0978405803210D
:1047A00009028843009908430299019AD218521EBF
:1047B0001278885003B07047545C000880B584B00C
:1047C0000390029100200190FFE702980068019990
:1047D000C84000284BD0FFE702980068019A0121E9
:1047E000914008400090009800283CD0FFE70298D4
:1047F0004068012805D0FFE70298406802280DD1E3
:10480000FFE703980099029A926800F093F80398E2
:10481000029A1168D26800F06CF8FFE703980099DB
:10482000029A126900F074F802984068022813D1C5
:10483000FFE70098FF2807D8FFE703980099029A3E
:10484000526900F017F806E003980099029A52693D
:1048500000F026F8FFE7FFE703980099029A5268F4
:1048600000F035F8FFE70198401C0190ADE700200B
:1048700004B080BD83B00290019100920298006A5A
:10488000019A13465B43114659434A430F21514352
:1048900088430099514308430299086203B0704766
:1048A00083B00290019100920298406A01990A0A2D
:1048B00013465B43114659434A430F2151438843F2
:1048C0000099514308430299486203B0704783B08E
:1048D00002900191009202980068019A52430321CC
:1048E000514388430099514308430299086003B03B
:1048F000704783B002900191009202984068019A3B
:1049000090430099514308430299486003B07047AF
:1049100083B00290019100920298C068019A5243BC
:104920000321514388430099514308430299C860C9
:1049300003B0704783B002900191009202988068A2
:10494000019A52430321514388430099514308433C
:104950000299886003B0704786B003900291EFF32C
:104960001080049004980190EFF3108072B60590C7
:104970000398006800906846C078400700280BD470
:10498000FFE700980121C9070840029908430090F9
:1049900000980399086002E000200090FFE701986A
:1049A000002802D1FFE762B6FFE7009806B0704723
:1049B00080B50248012100F024FF80BD7102002073
:1049C00080B596B00020049015901490139012902A
:1049D000119010900F900E900D900C900B900A90EB
:1049E000099008900790012006904002FFF79CFD77
:1049F00006984004FFF788FD049806990791032163
:104A000008910B900920C00607A9FFF7D7FE049A6A
:104A100006992F480590FFF71DFE049A0598069900
:104A2000FFF7E4FD059806992022FFF76DFE049A32
:104A300005980699FFF790FE059806998022FFF7E2
:104A400033FE059806990A02FFF79EFE059806991F
:104A50008A02FFF741FE1F48FFF749FDFFE71D48A7
:104A6000FFF7C4FC002801D0FFE7F8E71848012150
:104A70000291194AFFF760FE029916480390FFF76A
:104A8000F1FC039800210191129113911491159159
:104A900012A9FFF77BFC0199029A03980923DB0115
:104AA0000D930E910F91109211910DA9FFF7B0FC8B
:104AB00001990398FFF7E4FC01990398FFF70AFDB9
:104AC000029903988902FFF7E8FC16B080BDC04642
:104AD00000000240002401404024014080B582B023
:104AE000FFE72B48026801210A4302600068084082
:104AF00001900198FFE709200090002100F0D6FC0A
:104B0000009800F0BDFC02B080BDC04610B58CB06E
:104B100000200B900A90099008900790FFE71C482E
:104B200002680121C9040A43026000680840069037
:104B30000698FFE7FFE716480268012149040A4387
:104B400002600068084005900598FFE7114803904F
:104B50000824002202922146FEF7A8F90299039840
:104B60000122019252030792212212040892099114
:104B700007A90491FEF708F8019B029A039804998B
:104B80000794089309920A92FDF7FEFF0CB010BD3E
:104B9000141002400008004880B588B0002101913F
:104BA0000791069105910491039102911748012202
:104BB0009207026041608160154AC26001618021F4
:104BC0008161FEF7D7FF002803D0FFE7FDF7C8FC9F
:104BD000FFE70120000304900C4804A9FFF7E6F862
:104BE000002803D0FFE7FDF7BBFCFFE72020029081
:104BF00000200390054802A9FEF756FF002803D0C5
:104C0000FFE7FDF7ADFCFFE708B080BD8C02002098
:104C10007F25000080B58EB0002100910D910C9190
:104C20000B910A91099108910791069105910491C0
:104C300003910291019128489A4A0260EA22426057
:104C40008160264AC260016180218161FEF792FF86
:104C5000002803D0FFE7FDF783FCFFE701200003F6
:104C60000A901D480AA9FFF7A1F8002803D0FFE722
:104C7000FDF776FCFFE71848FFF746FA002803D057
:104C8000FFE7FDF76DFCFFE7002008900990124850
:104C900008A9FEF709FF002803D0FFE7FDF760FC35
:104CA000FFE76020019000220292039205920A48D9
:104CB00001A9FFF771F9002803D0FFE7FDF750FCC9
:104CC000FFE7054802689169082399439161FFF75E
:104CD00033F90EB080BDC046D4020020FF1F000093
:104CE000FFE7FEE77047704780B584B002900298F6
:104CF000401E000E002803D0FFE70120039011E0C2
:104D00000298401E0949086000200190C043032119
:104D100000F00CFC019806490860064A0721116062
:104D20000390FFE7039804B080BDC04614E000E0A4
:104D300018E000E010E000E080B5FEF7D1F880BD9B
:104D400080B592B005A800903421FBF7D8FB0098FD
:104D500000210491039102910191302205920122D8
:104D60000D920A9210220B920E91FEF7C5FA0028BE
:104D700003D0FFE7FDF7F4FBFFE7072001900320D6
:104D8000029000200390049001A80121FEF732F95F
:104D9000002803D0FFE7FDF7E3FBFFE712B080BD7B
:104DA0007047000083B00290019102980068009063
:104DB0000298ED4988420BD0FFE70298012189074C
:104DC000884205D0FFE70298364988420AD1FFE7BA
:104DD000009870218843009001984168009808432A
:104DE0000090FFE70298E04988421FD0FFE7029851
:104DF00001218907884219D0FFE702982949884292
:104E000014D0FFE70298284988420FD0FFE70298A4
:104E1000D64988420AD0FFE70298D549884205D092
:104E2000FFE70298D34988420BD1FFE7009803219E
:104E30000902884300900198C168009808430090D7
:104E4000FFE7009880218843019949690843009051
:104E5000009802990860019880680299C8620198D8
:104E60000068029988620298BF4988420FD0FFE724
:104E70000298BE4988420AD0FFE70298BC4988429E
:104E800005D0FFE70298BB49884205D1FFE70198AA
:104E9000006902990863FFE702990120486103B0A5
:104EA0007047C046000400400020004084B00390DA
:104EB00002910192029A1F210A4001209040009025
:104EC000009B039A106A98431062019A0298084066
:104ED00082400399086A1043086204B0704785B0A5
:104EE00004900391029201930498806800900098C6
:104EF000FF2109028843009003990298019A120247
:104F0000104301430098084300900098049988607A
:104F100005B0704783B002900191029880680090BC
:104F20000098702188430090019800990843072158
:104F30000843009000980299886003B07047000011
:104F400085B0049003910499086A01229043086295
:104F50000498006A01900498406800900498806961
:104F6000029002987021884302900298032188439E
:104F70000290039801680298084302900198022168
:104F80008843019003988168019808430190049830
:104F9000F04988420FD0FFE70498EF4988420AD0D1
:104FA000FFE70498ED49884205D0FFE70498EC49F3
:104FB00088420ED1FFE701980821884301900398A9
:104FC000C168019808430190019804218843019029
:104FD000FFE70498DF4988420FD0FFE70498DE49D5
:104FE00088420AD0FFE70498DC49884205D0FFE7F1
:104FF0000498DB49884214D1FFE7009801210A0296
:1050000090430090009849028843009003984169BA
:105010000098084300900398816900980843009025
:10502000FFE7009804994860029804998861039802
:1050300040680499486301980499086205B0704774
:1050400085B0049003910499086A10229043086285
:105050000498006A01900498406800900498806960
:1050600002900298072109038843029002980321C5
:1050700009028843029003980068010202980843DD
:1050800002900198202188430190039880680101D3
:105090000198084301900498AE4988421BD0FFE76D
:1050A0000498AD49884204D1FFE70020002812D1BE
:1050B000FFE70498A949884204D1FFE700200028AF
:1050C00009D1FFE70498A649884213D1FFE70120E0
:1050D00000280FD1FFE701988021884301900398B1
:1050E000C06801010198084301900198402188435C
:1050F0000190FFE70498974988420FD0FFE7049892
:10510000954988420AD0FFE704989449884205D01F
:10511000FFE704989249884216D1FFE700980121E1
:105120008A02904300900098C90288430090039837
:1051300040698100009808430090039880698100CD
:10514000009808430090FFE700980499486002988F
:1051500004998861039840680499886301980499C8
:10516000086205B07047C046002C01400040014075
:10517000004401400048014085B004900391049A26
:10518000106A01210B02984310620498006A019092
:105190000498406800900498C069029002987022B8
:1051A0009043029002980322904302900398026871
:1051B0000298104302900198490288430190039895
:1051C000806801020198084301900498614988426F
:1051D0001BD0FFE704986049884204D1FFE7002014
:1051E000002812D1FFE704985C49884204D1FFE708
:1051F0000020002809D1FFE704985949884214D1BA
:10520000FFE70120002810D1FFE701980121CA0221
:10521000904301900398C0680202019810430190E6
:105220000198890288430190FFE704984949884220
:105230000FD0FFE70498484988420AD0FFE7049856
:105240004649884205D0FFE704984549884216D16F
:10525000FFE7009801210A0390430090009849035A
:10526000884300900398406901010098084300902A
:10527000039880690101009808430090FFE70098B7
:105280000499486002980499C86103984068049999
:10529000C86301980499086205B0704785B004900E
:1052A0000391049A106A01210B0398431062049839
:1052B000006A01900498406800900498C0690290C8
:1052C00002980722120390430290029803221202CE
:1052D00090430290039800680202029810430290E3
:1052E000019849038843019003988068010301985D
:1052F000084301900498174988420FD0FFE70498AB
:10530000154988420AD0FFE704981449884205D01D
:10531000FFE70498124988420CD1FFE70098012169
:1053200089038843009003984069810100980843ED
:105330000090FFE700980499486002980499C861BA
:10534000039840680499086401980499086205B0BC
:105350007047C046002C014000400140004401401D
:105360000048014085B00490039102920498006ABD
:1053700000900499086A01229043086204988069A9
:1053800001900198F0218843019002980101019851
:105390000843019000980A218843009003990098DF
:1053A0000843009001980499886100980499086264
:1053B00005B0704785B00490039102920499086A81
:1053C0001022904308620498806901900498006A52
:1053D000009001980F21090388430190029801036E
:1053E0000198084301900098A021884300900398F9
:1053F0000101009808430090019804998861009881
:105400000499086205B0704787B004900391EFF3E8
:105410001080059005980290EFF3108072B6069008
:1054200004980068019001A8C0784007002806D5BC
:10543000FFE70398049908600120009002E0002033
:105440000090FFE70298002802D1FFE762B6FFE76D
:10545000009807B07047000080B50248002100F0B6
:10546000D0F980BD7102002080B582B00190019911
:105470000248183000F0AAF902B080BDC007002031
:1054800081B0014668460170007840B2002809D416
:10549000FFE7684601781F2001400120884002494B
:1054A0000860FFE701B0704700E100E070B582B02E
:1054B000024601A802700091007840B2002817D47B
:1054C000FFE701A9087840B20322D3431840384AC5
:1054D0008058097849B28C07E50EFF24AC40A04300
:1054E000009CA401E4B2AC402043194088501AE06B
:1054F00001A908780F24204008380322D34318401C
:105500002A4A8058097849B28D07EE0EFF25B5402A
:10551000A843009DAD01EDB2B540284321400839B4
:1055200019408850FFE702B070BDC04670B582B028
:10553000024601A802700091007840B2002817D4FA
:10554000FFE701A9087840B20322D3431840184A64
:105550008058097849B28C07E50EFF24AC40A0437F
:10556000009CA401E4B2AC402043194088501AE0EA
:1055700001A908780F24204008380322D34318409B
:105580000A4A8058097849B28D07EE0EFF25B540CA
:10559000A843009DAD01EDB2B54028432140083934
:1055A00019408850FFE702B070BDC0461CED00E016
:1055B00000E400E083B001900198009062498842C5
:1055C0000AD0FFE700986149884208D0FFE70098B9
:1055D0005F49884206D008E00020029009E00020E0
:1055E000029006E00020029003E00020C0430290F9
:1055F000FFE7029803B0704781B0009001B0704798
:1056000083B00190019800904F4988420AD0FFE78B
:1056100000984E49884208D0FFE700984C498842DC
:1056200006D008E00020029008E00020029005E08B
:105630000020029002E000200290FFE7029803B0F1
:105640007047C04683B00190019800903E4988425F
:105650000AD0FFE700983D49884208D0FFE700984C
:105660003B49884206D008E00120029008E0012072
:10567000029005E00120029002E000200290FFE786
:10568000029803B07047C04684B00290019102981E
:1056900000902D4988420AD0FFE700982B498842A4
:1056A00009D0FFE700982A49884208D00BE0002083
:1056B000C04303900BE00020C043039007E00020AC
:1056C000C043039003E00020C0430390FFE703982A
:1056D00004B0704780B588B006900591049203939A
:1056E00006980190184988420AD0FFE701981749A7
:1056F000884209D0FFE701981549884219D01BE07C
:105700000020C04307901BE0FFE7049800280DD05D
:10571000FFE70598411C059100780290029800F07F
:105720006FF9FFE70498401E0490EEE70020079011
:1057300006E00020079003E00020C0430790FFE749
:10574000079808B080BDC0460180000002800000BC
:105750000380000081B0009001B0704785B00290D6
:10576000EFF31080039003980190EFF3108072B66E
:1057700004900298006800900098401C029908600C
:105780000198002802D1FFE762B6FFE7009805B054
:10579000704785B00290EFF310800390039801905A
:1057A000EFF3108072B60490029800786946087092
:1057B0000098401C029908700198002802D1FFE768
:1057C00062B6FFE76846007805B0704786B0039080
:1057D0000291EFF31080049004980190EFF3108091
:1057E00072B60590039800680090029803990860CB
:1057F0000198002802D1FFE762B6FFE7009806B0E3
:10580000704786B0039002A80170EFF310800490F7
:1058100004980190EFF3108072B605900398007819
:10582000694608700298039908700198002802D10F
:10583000FFE762B6FFE76846007806B070470000F1
:1058400084B00390029101A91B480880FFE70298E9
:1058500000282DD0FFE70398411C03910078010236
:105860000198484001A9088008200090FFE70098AF
:10587000002819D0FFE701A800880004002809D5F6
:10588000FFE70198400001A9088001980B4A5040A9
:10589000088004E00198400001A90880FFE7FFE7C5
:1058A0000098401E0090E2E70298401E0290CEE76A
:1058B00001A8008804B07047FFFF0000211000001D
:1058C00080B584B0029001911E480068082804D376
:1058D000FFE70020C043039031E002980A2804D07B
:1058E000FFE702980D2811D1FFE7FFE71548006890
:1058F000062808D8FFE713490A68501C08601249B7
:1059000020208854F2E70A200290FFE702990D4810
:1059100003685A1C02600C4AD154006808280BD155
:10592000FFE708480090026807494D48FCF764FE0D
:10593000009900200860FFE702980390FFE70398B2
:1059400004B080BD880200207D02002080B586B0B2
:105950000020039005900F200121FCF7FDFFFDF7CB
:10596000D7FAFFF7EDF9FFF7D1F8FFF7B7F8FFF730
:1059700027F8FFF711F9FFF74DF9FCF7D7FD1748A6
:105980000290FEF7F7FC0298FEF796FD1448FEF72A
:105990006DF914480490FEF7B3F903990498FEF7E3
:1059A00007FCFFE710480078C007002815D0FFE784
:1059B0000E490868401C019008600D4801680D48B8
:1059C00048430D49FAF7E2FD019902460B48FAF700
:1059D00029FD054900200870FFE7E3E700240140A6
:1059E0008C020020D40200206802002078020020EF
:1059F00074020020E40C0000FF0F0000AB5C000804
:105A000080B584B0029014480068082804D3FFE7EA
:105A10000020C04303901CE002990F4803685A1C01
:105A200002600E4AD1540068082804D0FFE70298AB
:105A30000A280BD1FFE70848019002680749084887
:105A4000FCF7DAFD019900200860FFE70298039057
:105A5000FFE7039804B080BDEC070020E4070020B6
:105A600000FE0200F8B5040C8BB2264682B25E43FB
:105A7000104658430D0C370C360400218019164689
:105A800079416E43370C36048019264679416E43BE
:105A90008919F8BD4900CA020243100000D0042051
:105AA0004A0D01D001221043044A490D914201D10F
:105AB00002210843012800D105207047FF0700009C
:105AC00030380A2801D201207047002070470000BA
:105AD00010B500290AD00878002807D00548784476
